:100000006F00D00E1300000013000000130000006A
:100010001300000013000000130000001300000094
:100020001300000013000000130000001300000084
:08003000130000007300100032
:100038000000000000000000080300000C0300009E
:10004800000000003208000000000000000000006E
:10005800340800003608000000000000000000001E
:1000680038080000000000003A0800000000000006
:100078003C0800003E08000040080000420800005C
:100088004408000046080000480800004A0800002C
:100098004C0800004E0800005008000052080000FC
:1000A8005408000056080000580800005A080000CC
:1000B8005C0800005E08000060080000620800009C
:1000C8006408000066080000680800006A0800006C
:1000D8006C0800006E08000070080000720800003C
:1000E8007408000076080000780800007A0800000C
:1000F8007C0800007E0800008008000082080000DC
:100108008408000086080000880800008A080000AB
:100118008C0800008E08000090080000920800007B
:100128009408000096080000980800009A0800004B
:100138009C0800009E080000A0080000A20800001B
:10014800A4080000A6080000A8080000AA080000EB
:10015800AC080000AE080000B0080000B2080000BB
:10016800B4080000B6080000B8080000BA0800008B
:10017800BC080000BE080000C0080000C20800005B
:10018800C4080000164E0000C8080000CA08000095
:10019800CC080000CE080000D0080000D2080000FB
:1001A800D4080000D6080000D8080000DA080000CB
:1001B800DC080000DE080000E0080000E20800009B
:1001C800E4080000E6080000E8080000EA0800006B
:1001D8000000000000000000000000000000000017
:1001E8000000000000000000000000000000000007
:0801F8000000000000000000FF
:10020000397101436EC619A0397141536AC866CA73
:1002100062CC5ECE19A0397101535AD056D252D455
:100220004ED64AD826DA22DC06DE330161408282CD
:1002300041114AC026C222C406C68282B24D410183
:10024000024D924C224CB24B4101024B924A224A3F
:10025000B2494101024992442244B24041018280A4
:100260003D432A876373C3029377F700BDEFADE583
:10027000937606FF3D8ABA960CC34CC30CC74CC795
:100280004107E36BD7FE11E28280B306C3408A06C2
:100290009702000096966780A6002307B700A30682
:1002A000B7002306B700A305B7002305B700A304D2
:1002B000B7002304B700A303B7002303B700A302CA
:1002C000B7002302B700A301B7002301B700A300C2
:1002D000B7002300B700828093F5F50F9396850051
:1002E000D58D93960501D58D61B79396270097021A
:1002F000000096968682E78086FA9680C1171D8F49
:100300003E96E374C3F8A5B77300203001A0EFF266
:100310003FF24111854511453714014002C202C424
:1003200002C6EF00F0799307000241498D444C006A
:10033000130504807C824AC626C4EF0070058545FB
:100340002145EF00F07785674C00130504C07C82DF
:100350004AC626C4EF00D0031305048093050002AB
:10036000EF00F04B8565130504C0EF00504B4101D1
:10037000D5B5EFF2FFEB0545EF00707F0145EF00CB
:1003800090790945EF0090770545EF00707A0545B3
:10039000EF00B07B0565854513050580EF007070A3
:1003A000B7E700E03707200023A4E71065B5EFF2B8
:1003B0003FE841118545414502C202C402C6EF0033
:1003C0003070930700087C8291473EC64C008D47F1
:1003D000371501403EC42944EF00807BA301010092
:1003E0009305000837150140EF0090429C817D1471
:1003F0001374F40FAA9793F7F70FDC8175F09C81C3
:1004000093F7F70F99C34101B1B501A0EFF25FE295
:100410000945EF00F04EA122EF106009493F8545E4
:100420001545EF00F0693705300085451305054097
:10043000EF00303FE93D3D2CEF608074EF50A001AC
:1004400075DDEF603003EF601028EF60B002EF6001
:100450009027C5BFB71702409843B706FFF8411170
:100460001367170098C3D84337150240B705020039
:10047000758FD8C39843B706F7FEFD16758F98C3DE
:100480009843B706FCFFFD16758F98C3D843B7068F
:1004900081FFFD16758FD8C39843B70600ECFD1693
:1004A000758F98C33707FF0098C723A6070202C4B9
:1004B00002C69843C1660566558F98C321A0A2471E
:1004C000638AC7001C41ED8F3EC6A24785073EC424
:1004D000B247F5D7B71702409C431397E700635A1A
:1004E000070085473EC6324785476309F70041014B
:1004F000828002C632478547E31BF7FEB7170240EA
:10050000D8433706C1FF7D16D8C3D843D8C3D443D8
:100510003717024093E60640D4C3D443F18ED4C3C8
:10052000D44337062900D18ED4C394433706000143
:10053000D18E94C31C4393966700E3DD06FE5C43B3
:1005400037160240A146F19B5CC35C4393E727004A
:100550005CC35C42B18BE39ED7FE410182803717BA
:1005600002405C439146B18B638DD702A146638301
:10057000D704B7177A0037060020938707201306A1
:10058000060837170240584311839376F700370760
:1005900000201307070036971823B3D7E7001CC2C3
:1005A0008280B727B70037060020938707B013066D
:1005B0000608C1BF5C43544313D727013D8BC16775
:1005C000FD8E9307270015CF3D476380E70A41471B
:1005D000639FE7040147BD4785EAB746024083A60B
:1005E0000680C18AB9CAB7167A0093860620B387F7
:1005F000D70237060020130606081CC259D385838C
:1006000049B70147C947F1DAB7160240D4421396F9
:10061000E60063500604B7965B00938606D8B3875E
:10062000D70237060020130606081CC2C1BF454783
:100630006390E7040147C14745B7B7163D0093866D
:100640000690B387D70237060020130606081CC29F
:1006500075B7B726B700938606B0B387D7023706BB
:100660000020130606081CC251BF0547B547ADB7A9
:1006700001479DB7EFF23FBA397185451145EF004B
:10068000304485452145EF00B043854537050400DA
:10069000EF00F04485450545EF00B04037190140B3
:1006A000130509809305004002C402C602C8EF008A
:1006B000D016930A00400D4AC1492C00130509C009
:1006C000B75400402314510152C64EC8D12183D7DC
:1006D000C4802C00130509C0C207C183CD9BC2078B
:1006E000C1832396F4808567938707807C84930772
:1006F00080043EC87129E1472C00130509C03EC89B
:100700002314510152C669218545054502CA02CC10
:1007100002CE02D002D202D402D602D802DA02DC21
:1007200002DEEF001038B747004093874740370993
:1007300002403ECA93070008130509033ED48D67A3
:100740004ECE3EDC02CC02D002D202D602D802DA71
:1007500002DE3524B76700209387C75113840480D5
:100760004C08130509033ECC938444809307002072
:100770003ED026CA02CE652E130509038545C52E37
:100780000546228593050004EF00504FF1679387DB
:10079000072002CE4C0822853ECAB147FC8702CC16
:1007A00002D0EF00303E85452285EF00B04B21613D
:1007B00069BCEFF2FFA71431102138213C31A206A9
:1007C000D18E4207558FE20754214111D98F3EC087
:1007D00002C202C402C605475C316387E6040947CA
:1007E0006389E6020547638BE7020947638DE700EB
:1007F000375500408A85B147130505807C85EF0099
:100800007038410181BC930700407C8485677C82FD
:10081000C5B7096778830547E399E7FC930700604C
:100820007C8485677C82E9B70D67788365BF01A00A
:1008300001A001A001A001A001A001A001A001A0B0
:1008400001A001A001A001A001A001A001A001A0A0
:1008500001A001A001A001A001A001A001A001A090
:1008600001A001A001A001A001A001A001A001A080
:1008700001A001A001A001A001A001A001A001A070
:1008800001A001A001A001A001A001A001A001A060
:1008900001A001A001A001A001A001A001A001A050
:1008A00001A001A001A001A001A001A001A001A040
:1008B00001A001A001A001A001A001A001A001A030
:1008C00001A001A001A001A001A001A001A001A020
:1008D00001A001A001A001A001A001A001A001A010
:1008E00001A001A001A001A001A001A0970100208A
:1008F000938141F9177100201301C1701785000021
:100900001305854697F5FF1F9385C56F13860185EF
:1009100063FAC5008322050023A055001105910547
:10092000E3EAC5FE176500201305C5BB97650020E7
:10093000938585156377B500232005001105E36DC8
:10094000B5FEFD42739002BCAD4273904280B76227
:1009500000009382820873A0023097F2FFFF938217
:10096000E26D93E2320073905230EFF0BFAE970227
:1009700000009382E2A973901234730020301C416E
:1009800041677917F98F1CC1232005002322050038
:1009900023240500B707024023260500138787009C
:1009A000630EE5081387C7016305E508138707038E
:1009B0006301E50A138747046304E50A1387870583
:1009C0006303E5081387C7066301E50A1387070871
:1009D0006301E50C138787406303E50C1387C74168
:1009E000630BE508938707436302F50CB7070240E2
:1009F000138747446307E50C13878745630AE50CB3
:100A00001387C746630EE50C138707486302E50E9C
:100A1000138707496306E50E1387074A6309E50E46
:100A20001387074B630CE50E1387074C630CE50433
:100A30008280D8431367070FD8C38280D8431367D7
:100A4000F700D8C38280D843B7060F00558FD8C3AC
:100A50008280D8438566938606F0558FD8C38280FE
:100A6000D843BD66558FD8C38280D843B706F000FF
:100A7000558FD8C3828003A747401367070F23A26F
:100A8000E740828003A7474DBD66558F23AAE74CF8
:100A90008280D843B706000F558FD8C3828003A742
:100AA00047401367F70023A2E7408280B707024060
:100AB00003A747408566938606F0558F23A2E7403B
:100AC000828003A74740BD66558F23A2E7408280FE
:100AD00003A74740B7060F00558F23A2E740828047
:100AE00003A74740B706F000558F23A2E740828056
:100AF00003A74740B706000F558F23A2E740828027
:100B000003A7474D1367F70023AAE74C828003A78A
:100B1000474D1367070F23AAE74C828003A7474D71
:100B20008566938606F0558F23AAE74C8280905104
:100B30009C459449D84983A88501D18FD58FD04D44
:100B4000D451D98FB3E71701184103A88502D18F7B
:100B5000D58FE176BD06D045758FB3E70701944187
:100B6000D98F1CC1DC4150C114C55CC582801C41B9
:100B700089C593E717001CC1828041677917F98FF7
:100B80001CC182804CC182804841420541818280E3
:100B9000944593F7060113F6F60099C3DC415D8E88
:100BA0009E2113F7F70F39CB184193058004638A10
:100BB000B61A930580026381B63A93F51700639ED7
:100BC000053093F52700639C053293F54700639544
:100BD000053693F58700639A053493F50701639E04
:100BE000053293F507026392053293F5070463908B
:100BF000053093F507086395052E18C11307F00F0C
:100C00006370F70C584193058004639CB60A93F611
:100C1000071091C6419B93060010518F14C993F69B
:100C2000072089CA931646001377F7F0558F93066D
:100C3000002014C993F6074099CAFD769386F60FF3
:100C4000758F93168600558F9306004014C98566EC
:100C500093860680B3F5D70081C9C575FD156D8FE4
:100C60009315C6004D8F14C99396370163DB0600B8
:100C7000B706F1FFFD16758F93160601558F856631
:100C800014C99396270163DB0600B70610FFFD1613
:100C9000758F93164601558F896614C9939617016F
:100CA00063DB0600B70600F1FD16758F931686010B
:100CB000558F916614C9C207C18763C7072858C1F9
:100CC000828093058002638AB61493F6071099C256
:100CD000419B518F93F6072091C61377F7F0931637
:100CE0004600558F93F6074081CAFD769386F60F2E
:100CF000758F93168600558F9396470163D806002B
:100D0000C576FD16758F9316C600558F93963701DD
:100D100063D90600B706F1FFFD16758F931606011D
:100D2000558F9396270163D90600B70610FFFD166D
:100D3000758F93164601558F9396170163D9060058
:100D4000B70600F1FD16758F93168601558FC20701
:100D5000C187E3D607F6120711837206518F58C177
:100D600085B793F5170089C5419B8545518F0CC9FF
:100D700093F5270081C9931546001377F7F04D8F3F
:100D800089450CC993F5470091C9FD759385F50F09
:100D90006D8F931586004D8F91450CC993F5870093
:100DA00089C9C575FD156D8F9315C6004D8FA14579
:100DB0000CC993F5070191C9B705F1FFFD156D8FBA
:100DC000931506014D8FC1450CC993F5070299C9CA
:100DD000B70510FFFD156D8F931546014D8F9305D7
:100DE00000020CC993F5070499C9B70500F1FD1578
:100DF0006D8F931586014D8F930500040CC993F5F3
:100E00000708E38C05DE12079315C60111834D8F89
:100E1000930500080CC918C1D5B393F6071091C605
:100E2000419B93060010518F54C993F6072089CA3D
:100E3000931646001377F7F0558F9306002054C998
:100E400093F6074099CAFD769386F60F758F931631
:100E50008600558F9306004054C9856693860680A8
:100E6000B3F5D70081C9C575FD156D8F9315C60003
:100E70004D8F54C99396370163DB0600B706F1FF27
:100E8000FD16758F93160601558F856654C9939686
:100E9000270163DB0600B70610FFFD16758F93165A
:100EA0004601558F896654C99396170163DB060086
:100EB000B70600F1FD16758F93168601558F916662
:100EC00054C9C207C187E3DC07DE1207118372062B
:100ED000A167518F5CC958C1E5B3419B518FD5B112
:100EE000120711839315C6014D8F18C101BBB705B9
:100EF00000F1FD156D8F931586014D8FDDB91377C8
:100F0000F7F0931546004D8FC9B1B70510FFFD15D9
:100F10006D8F931546014D8FC9B9B705F1FFFD15CA
:100F20006D8F931506014D8F6DB9C575FD156D8FCC
:100F30009315C6004D8F55B1FD759385F50F6D8FD7
:100F4000931586004D8F71B1120711837206A16748
:100F5000518F1CC958C1ADB393F5170089C5419B8A
:100F60008545518F4CC993F5270081C993154600DB
:100F70001377F7F04D8F89454CC993F5470091C918
:100F8000FD759385F50F6D8F931586004D8F9145F7
:100F90004CC993F5870089C9C575FD156D8F9315EB
:100FA000C6004D8FA1454CC993F5070191C9B705FE
:100FB000F1FFFD156D8F931506014D8FC1454CC98D
:100FC00093F5070299C9B70510FFFD156D8F9315AD
:100FD00046014D8F930500024CC993F5070499C94A
:100FE000B70500F1FD156D8F931586014D8F9305A3
:100FF00000044CC993F50708E38105C01207931557
:10100000C60111834D8F930500084CC918C1FDB668
:1010100008456D8D3335A00082800CC982804CC993
:101020008280B70630009357050113180501337607
:10103000D500BD8B1358080163490504B70801406A
:1010400003A748006309D6029316B50063DB0606C2
:101050008D46B397F60093C7F7FF7D8FB707000F54
:10106000D98F91C5558112053315A800C98F37074F
:1010700001405CC3828083A64800B70700F1FD17DA
:10108000FD8E23A2D800F98FE9BF37070140584FE2
:101090006300D6069316B50063D106048D46B39758
:1010A000F60093C7F7FFF98F89C9135755011377D6
:1010B000F73F12073315E800C98F370701405CCFAF
:1010C0008280935755019207B317F80093C7F7FF33
:1010D0007D8FB707000FD98F69B79357550193F7E5
:1010E000F73F9207B317F80093C7F7FFF98F6DBF6B
:1010F000C1078D46B397F60093C7F7FFF98F6DB719
:10110000B767002023A0A74E8280371702405C43B8
:101110009146B18B6384D706A1466387D706B7177C
:101120007A00938707201CC13716024054423707C4
:101130000020130707019182BD8ABA969422B3D783
:10114000D7005CC15442A1829D8ABA969422B3D63C
:10115000D70014C55442AD829D8A36971823B3D761
:10116000E7005CC558423983937637001387418086
:1011700036971823B3D7E7021CC98280B727B70078
:10118000938707B01CC14DB75C43B7F6FF1F5843A8
:1011900083A6C6704166C983BD8B718F13961601F5
:1011A0008907635F060289466389D70CBD46638958
:1011B000D70CC146639DD70A8146BD4705EB37472B
:1011C000024003270780418B2DCB37177A00130786
:1011D0000720B387E7021CC1A1DA85831CC1A9B728
:1011E00045468146E39CC7FCC94771DBB715024001
:1011F000D8551316F700D8556359060411833D8B53
:101200003726B7000507130606B03356E60210C1AD
:10121000D85521833D8B39C785456306B706BD4543
:10122000630AB70609073307C7023716024050564C
:101230003D8A05063357C70215A037173D0013072F
:101240000790B387E7021CC141BF3D8B130617000F
:101250003727B700130707B03357C702B387E70232
:101260001CC19DBF13172600329705837DBFC5465D
:101270006397D7028146C14791B78146C947B5B741
:101280008546B54725BF1317160032970E073297CC
:10129000058361BF1317260032970A0779B7814685
:1012A00031BF99C5371702405C4B5D8D48CB8280BA
:1012B000B7170240D84B1345F5FF798DC8CB828014
:1012C00099C5371702401C4F5D8D08CF8280B71734
:1012D0000240984F1345F5FF798D88CF828099C5DC
:1012E000371702405C4F5D8D48CF8280B7170240B0
:1012F000D84F1345F5FF798DC8CF8280B7170240CC
:10130000D857B70600F9FD16758FD8D7D85762059C
:10131000598DC8D78280B7170240D857B70600F852
:10132000FD16758FD8D7D8576E05598DC8D78280CE
:10133000B7170240D857B70600D0FD16758FD8D71B
:10134000D8577205598DC8D7828009C9371702400E
:101350005C57B7060040D58F5CD78280B716024035
:10136000DC56370700C07D17F98FDCD6828037172F
:1013700002405C577E05860785835CD75C575D8D90
:1013800048D78280EFE2DFEA1629FA21F577FD17C8
:10139000F58FD98FDA251EA92A844A25AE84FD77D8
:1013A000CE2192249387379FB624E98FCD8FD18F9A
:1013B000D58F5EA45E2801116800C207C18393F730
:1013C000F7CFD98F5EA89133B74701409387078045
:1013D0006308F4085247562493171700BA97C206B9
:1013E0008E07C186BA97984063CE06020A07B3D724
:1013F000E70213074006522442064186B3D6E702AD
:10140000B3F7E7029206634E06029207938727031B
:10141000B3D7E702BD8BD58FC207C1831EA4056178
:101420006FE05FE30607B3D7E702130740065224D5
:1014300042064186B3D6E702B3F7E7029206E356C7
:1014400006FC8E0793872703B3D7E70213F77700CD
:10145000B367D700C207C1831EA405616FE09FDF99
:10146000624795BF91C55E250967D98F5EA58280C9
:101470005A25F977FD17F98F5EA582805E2901C68E
:10148000DD8D4EA9828093C5F5FFFD8D4EA982802A
:1014900093F5F51F4EA182800A216D8D3335A00092
:1014A000828093C5F5FFC205C1810EA18280B70776
:1014B000002083A7070837177A0013070720B3D740
:1014C000E7021307803EB766002093F7F70F3387D4
:1014D000E7022383F64EB76700202392E74E82800F
:1014E0003285828093878180944337770020130769
:1014F00047A83695636BE500378700201307078000
:101500006365A70088C336858280FD563685828054
:10151000EFE21FCF1821FD4679711346070863F1EA
:10152000C60298A1F5462E89138C150063EAE6726F
:10153000A1660A079386067C369718432A8D028790
:10154000EF104075AA84268545616FE03FCFA380E8
:101550000500183113892500854B93052500930953
:10156000F7FF8544630E0770371B0140370A00FF01
:10157000370C3001B70C4000FD5AB1A083274D0055
:101580004A86A285B3F747012322FD0083274D0039
:10159000B3E787012322FD00EF20F003639E0900DB
:1015A00083274D00B3F747012322FD0083274D0019
:1015B000B3E787012322FD008504B305B401EE944F
:1015C000FD19638F596B882113841500A14D937702
:1015D000F50389C7938D770093DD3D00931785014F
:1015E000E187130D0B80E3DB07F883274D004A8664
:1015F000A285B3F747012322FD0083274D00B3E7FF
:1016000097012322FD00EF20007D639E09008327C0
:101610004D00B3F747012322FD0083274D00B3E7B8
:1016200087012322FD0085046E99EE9BA28549BFA8
:10163000376700201307C771102389466313D668E4
:101640001C31342F3CBF63FED7663945EF1050384C
:10165000EF10C0719356850013570501935785010C
:10166000B7040200A30009002301A900A301D900C7
:101670002302E900A302F9009904F1B51831B76912
:1016800000209389C971238DE9006305071030217B
:10169000854623920902238EC9006314D7006F1078
:1016A0002022343189452393C902A38ED900B296F2
:1016B000630AB7064C212394D9020D45238FB90044
:1016C000AE966301A70683455D0011452395D902B7
:1016D000A38FB900AE966307A70483456D00154537
:1016E0002396D9022380B902AE96630DA7028345E3
:1016F0007D0019452397D902A380B902AE966303F2
:10170000A70283458D001D452398D9022381B90284
:10171000AE966309A70083479D002399D902A38150
:10172000F902BE9683C7D901918E239AD9029D8E64
:10173000239BD9028947630FF70403C6E9018D474C
:10174000918E239CD9026307F70403C6F9019147E0
:10175000918E239DD902630FF70203C609029547B4
:10176000918E239ED9026307F70203C61902994797
:10177000918E239FD902630FF70003C629029D476C
:10178000918E2390D9046307F70083C739029D8E99
:101790002391D90493041700C204C16793E4140091
:1017A0008507A3000900BE9479BB376700201307A3
:1017B000C77114230546E388C64409466398C65892
:1017C0001431302F34BF63F3C6582145EF10502039
:1017D00083463D0003462D0003474D0003455D0051
:1017E00093978600B3E6C70093170701D58F62056C
:1017F0005D8DB7040600EF10C0708904A3000900D6
:1018000099B3B76900209389C97183CA0900054754
:10181000E38BEA520947E38DEA42A3800500238166
:101820000500A38105000D4C03474D00098B63079C
:101830000752B7040400336C9C00C1648504E29431
:1018400019B33421103138315C21A206D18E420700
:10185000558FE207D98F6388075237177A0013072D
:10186000F71FE373F75CB76700209387C7710547DD
:1018700098B30547D8C3B7040500A300090089043D
:10188000D9B1C16423810500A38005008D0465B929
:10189000382114319317870033E7D70093171700C7
:1018A000BA978A07998F3ED29257FD173ED2EDFF25
:1018B000B7040300A3000900890471B1B7190140FE
:1018C000B767002091440D444C1013850980238E86
:1018D000077099672312F10226D62313010222D43E
:1018E000EFF00FAB930700104C1037150140231297
:1018F000F10226D622D4EFF0AFA9F17726D64C100C
:10190000138509C0C1642312F10222D48904EFF0C7
:101910002FA8A300090005B900316302043C8547E4
:10192000630FF43A89476317F446B767002085458B
:101930001145B7140140238E877002D202D402D61B
:10194000413299678D49414A4C1013850480231216
:10195000F10252D64ED4EFF0AFA3996513850480FF
:10196000EFF0AFEB85454145A13A930700104C10CD
:10197000371501402312F102D1473ED64ED4EFF085
:101980002FA19305001037150140EFF00FE98545B1
:1019900021453D32E1774C10138504C02312F1023A
:1019A00052D64ED4EFF0CF9E91674C10138504C0F1
:1019B0002312F10291473ED64ED4EFF06F9DA16500
:1019C000138504C0EFF06FE5B7040200A30089009F
:1019D000890495BE1831E30E07428547E30AF7EC08
:1019E000FD57B70403009CB18904B1BE1C31130735
:1019F000000FE38AE7506363F72A0D47E381E7525C
:101A000011476397E72C9387018488238C33B02395
:101A1000B433D823DC33B70402002301A900A303A5
:101A2000F9009947A301B9002302C900A302D90014
:101A30002303E900A104A300F90031B6B76900202F
:101A40009389C97183C709009306150005473ECAEB
:101A500036CE638AE76A09476380E7343821130486
:101A6000350009EB6F00F01CC18B89EB05047D1775
:101A7000E301071C1C2093F62700FDF61504C5BFE3
:101A80001C31376700201307C77193F6370089832D
:101A90008506858B14AF1CBFB7040200A380050028
:101AA000890455B4083193052D006308052C93046F
:101AB00075008D808504C204C16793E41400850716
:101AC000BE94EF20A02AA3000900B5BCA3800500A6
:101AD00018311389250013042500930AF7FF054BDD
:101AE00085446306071AFD5B3DA09D0993D9390023
:101AF000138C19005285620AA2854A86135A8A41BC
:101B0000EF10E0194E94E29463540A004E994E9BF4
:101B1000FD1A638E7A17034A040005049379FA03C9
:101B2000E39509FC254CA149F1B714313767002032
:101B30001307C77154A734313021B7040600A20639
:101B4000D18E16AB54315021890493978600D18FE2
:101B50003EABA3800500C5BA4021303158318349DE
:101B6000250074212204518C4207418F13FB190078
:101B7000139486010431598C630B0B0093F7140006
:101B8000E38C072CB7170140116723A8E78013FAED
:101B90002900630B0A0093F72400E386072CB7178C
:101BA0000140096723A8E78093FA4900638C0A0083
:101BB00093D72400858BE38F072AB717014021674D
:101BC00023A8E7C0939B890193DB8B4163C00B0A79
:101BD00021C893D6140013D6240093D7540013D7EA
:101BE0007400E3000B2AE3950754E31F0A4CB71671
:101BF000014063C40B006F00D07783A7C680B98310
:101C0000858BE39CF4FE63880A0083A7C6C0BD836E
:101C1000858BE314F6FE9C46A183858BE31FF7FCBE
:101C2000371701400326C7808327C7808325C7C095
:101C3000832687C0B1831847B581898B9189398202
:101C4000CD8F058AAD82D18FA18A0583D58F137779
:101C50000708D98FB7040700A300F9008904E5B08D
:101C6000FD57C1642300F9008504F1B893D77400CF
:101C7000E3840730B71701401307001098CB89BFE2
:101C8000C204C167B3E474018507BE946DB8C20491
:101C9000C167B3E464018507BE9475B01307E00F14
:101CA000E38FE72A1307F00F6394E7028947BCB17B
:101CB00023810500B704020089479104A300F900BD
:101CC00059B0FD57B7040200A300F9008904A5B874
:101CD000B704020081478904A300F900ADB00547AD
:101CE000B767002085451145238EE77002D202D4E4
:101CF00002D6EFF0EFDCB714014099670D444C10A9
:101D0000138504802312F102C1473ED622D4EFE0AE
:101D10003FE8996513850480EFF02FB08545414574
:101D2000EFF00FDA930700104C1037150140231223
:101D3000F102D1473ED622D4EFE09FE59305001093
:101D400037150140EFF06FAD0544BDB9FD57B7043D
:101D50000600A300F90089046FF0EFFE83443D0004
:101D600083472D00A204DD8C8504CA04C167B3E457
:101D700084018507BE946FF00FFDB704220089042B
:101D8000130500103DBBFD57B70405009CB1890445
:101D90006FF06FFB01440DB91831B764002083C6A2
:101DA000A9019384744E9387350023800400A38D8A
:101DB000E9003EC8E377D724834B250013043500A0
:101DC000E3850B5A814D0146014B894A034A0400C1
:101DD000930714003EC4937C1A0093772A00A90C41
:101DE0006383071463070B1603DD09016396CC00B8
:101DF00013770A01630F0710A947630EF600294500
:101E0000EF10003D09A863030D2898207D1D13776E
:101E1000F70FE317070C4C103945EF104077AA86EF
:101E2000E30355FF2946014B8547E392F60CC24870
:101E3000925713770A019386480013D8870013D569
:101E4000070193D587012380F800A380080123812F
:101E5000A800A381B80036C86311071022446307A5
:101E60000B269C20850D93F7F70FE3970732FD1B98
:101E7000E39E0BF493FDFD0FA9476305F60029458A
:101E8000EF10003583D90901E3080B42130A410220
:101E9000894A09A8E38809449C20FD1993F7F70FA4
:101EA000E3920744D2853945EF10606EE30455FF95
:101EB0000547EE876315E502C24612579106B684C0
:101EC00036C8935587001356070193568701238E12
:101ED000E4FEA38EB4FE238FC4FEA38FD4FE72470C
:101EE000A300F900C167B304E4404247C204850778
:101EF000330C8741B3E484012301A900BE946FF041
:101F00008FE463060D7E98207D1D1377F70F631015
:101F1000077E4C10528532C6EF106067AA863246A3
:101F2000E30155FF11B763140B1034200C30383027
:101F30005C20A206CD8E4207558FE207D98F3ED294
:101F400013770A0215046306071423AAF900014B4C
:101F500009BF93770A01638B071638200C303C3099
:101F6000542022074D8FC207D98F13978601D98F2E
:101F70003EC6930754003EC403D429016385CC00B8
:101F80006685EF10E02403DD090101A863060D0654
:101F90009C207D1D93F7F70FA5E381455285EF1037
:101FA000005FAA86E30455FF85476317F50403DD48
:101FB000090101A863010D069C207D1D93F7F70F11
:101FC000A5E74C105285EF10805CAA86E30455FF0C
:101FD00083A7490112570546F98F6310C50432479C
:101FE0006300F71211C49C207D1493F7F70FE1D31F
:101FF000136505019376F50F6686224439A0C18BDF
:1020000089EB0504FD1B63820B781C2013F7270066
:102010007DF71504C5BF1257524583A749017D8F2F
:10202000B247E397E7FCC9BF52451257FDB7A9472E
:102030006305F6002945EF10A01903DD090101A889
:1020400063070D049C207D1D93F7F70FA9E34C1047
:102050003945EF10C053AA86E30455FF854763183E
:10206000F50242479257294611073A853AC893D557
:10207000870093D6070113D78701230EF5FEA30E21
:10208000B5FE230FD5FEA30FE5FE45B5014BA94CC8
:10209000A5B76385CC006685EF10801303DB0901CB
:1020A00009A863080B649C207D1B93F7F70F6392CC
:1020B000076C4C105285EF10804DAA86E30355FF44
:1020C00085476318F56A6686014B61BB6385CC0062
:1020D0006685EF10E00F03D4090109A8630F045EC1
:1020E0009C207D1493F7F70F6399075E8145528515
:1020F000EF10E0492A8BE30355FF8547E31DF52ADE
:1021000066862244B9BBB7640020834B25009384C4
:10211000744E93873500238004003EC813043500B5
:10212000E3810B2402CC014502C4014B894A054DD1
:10213000034A0400930714003EC693772A0063867F
:10214000071483DD0901EE87630E0B0493771A01F0
:10215000639BA70129AA63870D229C20FD1D93F78D
:10216000F70F639107224C103945EF10B054E30488
:1021700055FF014B6318A50D424792571107BA85C9
:1021800013D6870093D607013AC813D78701238E49
:10219000F5FEA38EC5FE238FD5FEA38FE5FE83D764
:1021A0000901BE8D93760A0113761A00638A06141C
:1021B000834C2400083034304C20A20CB3ECAC002B
:1021C00013075400C206B3E696013AC6939C8501F4
:1021D000B3ECDC0003D4290105C609A8FD1DFD5799
:1021E0006382FD069C2093F7F70FA9EF8145528586
:1021F000EF10504CE30455FF6316A50583D7090182
:10220000BE8D01A8638C0D069820FD1D1377F70F76
:1022100035E74C105285EF10F049AA86E30455FFCC
:1022200083A749011257F98F631BA505638DFC0C29
:1022300011C49C207D1493F7F70FE9D313E5060131
:102240001375F50F324439A0C18B89EB0504FD1BD2
:10225000638E0B061C2013F727007DF71504C5BFFE
:10226000E3820DFE9C20FD1D93F7F70FE1FF4C105C
:102270005285EF103044E30555FFEDBD125783A79B
:1022800049017D8FE39CECFA75BF631F0B0E342070
:10229000103038305C20A206D18E4207558FE207FD
:1022A000D98F3ED213770A0215046306071223AAB8
:1022B000F900014B054522479C2005073AC493F7D6
:1022C000F70F63900714FD1BE3940BE68547630C3F
:1022D000F54C9377F50F3ECAF247B304F440C2477A
:1022E000C204338C8741A247B3E48401A300F90000
:1022F000D2472301F900C1678507BE946FF0AFA4F0
:1023000011CE63040B06324402CC75B7FD1DFD5798
:10231000E38AFDF29C2093F7F70F8DF74C1052855E
:10232000EF105039E30455FFE31EA5F142479257E1
:1023300032449305470013D6870093D6070113D77D
:1023400087012EC8238EF5FEA38EC5FE238FD5FEF2
:10235000A38FE5FE02CC85B7FD1DFD57E384FDEE9E
:102360009C2093F7F70FE39F07EC81455285EF1010
:102370007034E30355FFE317A5ED02CC054B32445F
:102380001DBF22C6014B7DBD83DC090109A8E38B7B
:102390000CEA9C20FD1C93F7F70FE39507EA4C101D
:1023A0003945EF103031E30455FFE31DA5E94247FD
:1023B00092571107BA853AC813D6870093D60701FA
:1023C00013D78701238EF5FEA38EC5FE238FD5FE7E
:1023D000A38FE5FE6DBD03DB090101A863030B02BA
:1023E0009C207D1B93F7F70FC9FF4C105285EF100F
:1023F000702CE30555FFE316A5F985473ECC014B4C
:102400005DBD22C681B53431302158215C31A20630
:10241000D18E4207558FE207D98F4C100145B70482
:1024200006003ED28904EF10F028A30009006FF0E7
:102430008F91F247A300090023010900B304F4407F
:10244000C204C16793E424008507BE946FF0AF8F88
:102450001831B764002083C6A9019384744E238089
:102460000400A38DE900138B4500637ED726834DBE
:1024700035003821A20DB3E7ED003EC6638507267F
:10248000834B450093F71B00A9073E853EC8EF002C
:10249000305413F72B00DE8C6313075013045D00D8
:1024A00002C4130A4102894C14300C203020383009
:1024B000A206CD8E4206558E6207518F83DD09013B
:1024C0003AD2110401A8638F0D049820FD1D1377E3
:1024D000F70F29EBD2855E85EF10600BE30595FFC2
:1024E0008547631EF56CB2472247FD1705073EC6B8
:1024F0003AC4DDFBC24729476385E7002945EF0061
:10250000304D03D40901894939A009CC98207D14A4
:102510001377F70F01EB81453945EF104007AA8A81
:10252000E30535FFA24713D787001377F70F93F71B
:10253000F70FA300F9002301E900A3015901330CAF
:102540008B416FF06FAE3C313821B7640020A20799
:102550009384744ED98F238004003EC6938B45002C
:10256000638F0722034B450003D7090193762B00A5
:10257000639F06281304550002C4130A4102894CC4
:102580000C30082030203430A205C98D42064D8E13
:10259000E206D18E36D21104BA8D01A8638A0D04E9
:1025A0009420FD1D93F6F60FA1E6D2855A85EF1013
:1025B0007010AA8AE30495FF8547631BF502B247B2
:1025C0002247FD1705073AC43EC603D70901CDFBD4
:1025D0003A84894939A009CC98207D141377F70FE4
:1025E00001EB81453945EF10F00CAA8AE30535FF70
:1025F000A24713D7870093FDF70F1377F70FA300B8
:10260000B9012301E900A3015901338C8B416FF01B
:10261000AFA13C21858BE5C3B7170140130700101C
:1026200023AAE7806FF0CFA83727F4001307F73FFE
:102630003E97B357F702B76900209389C971A38009
:102640000900894605476385D7000D4733D7E70260
:1026500023A2E9006FF02FA2B7170140116723AA48
:10266000E7806FF0CFD2B7170140096723AAE78050
:102670006FF08FD3B7170140216723AAE7C06FF02F
:102680006FD46397072C63D20B4AB7150140639848
:102690000A023716014063080A008327C680B58303
:1026A000858BE39AF6FE1C46A183858B630AF7D6D9
:1026B000DDB783A7C580B583858B6384F600E31AF5
:1026C0000AFE83A7C5C0BD83858BE31AF6FE9C4531
:1026D000A183858B6306F7D4DDB78946014B29BA00
:1026E000A94C014B11BA814A0147814799B5B28C77
:1026F00021B222C411B2B71701401307001023A85A
:10270000E7806FF0EF9ACD47BCA18547BCB1B70415
:10271000020089479104A300F9006FE0DFE2B7F7F8
:10272000FF1F03A7077F83A6C77E03A6877E1384A8
:102730002500B7950000938585832285EF40703191
:102740002285EF40703593071500B704020093F718
:10275000F70F8904BE94A300F9006FE0DFDEA14704
:10276000BCA1B704020085478D04A300F9006FE007
:102770009FDD22C4014B49B0B71701401307001079
:10278000D8CBEF20C02D6FF0AFC493F7FD0F0547F6
:10279000BE8D13F5F60F6394E6F46FF0EFED814A0A
:1027A0000147814DA9BD630F0B2883DA0901130A84
:1027B0004102894909A8E3810AB29C20FD1A93F7D6
:1027C000F70FE39B07B0D2853945EF10A06E2ACAF8
:1027D000E30335FF8547E311F5B0424792571107F0
:1027E000BA853AC813D6870093D6070113D7870155
:1027F000238EF5FEA38EC5FE238FD5FEA38FE5FEA7
:10280000E1BC13042500814701456FF04FED93763D
:102810001B009DC63A84094A09A86301042C98202C
:102820007D141377F70F631B072A81455A85EF1034
:102830006068E30445FF05476312E53603D70901E5
:10284000B24702C4130A41021384F7FF894C39C806
:10285000BA8D01A8638D0D049420FD1D93F6F60F2B
:10286000B9E6D2855A85EF10E064E30595FF854708
:10287000631AF5321257A247910B135687009356ED
:1028800007018507238EEBFE61833EC4A38ECBFE3A
:10289000238FDBFEA38FEBFEE30D04D47D1403D75F
:1028A00009015DF493761B00C5D6394B55B7A24795
:1028B000894A13D7870093FDF70F1377F70F81B37A
:1028C000239A09026FE01FED3715014063980A0251
:1028D000B715014083A7C580B983858BE39CF4FEBF
:1028E00083A7C580B583858BE396F6FE63DA0BB2CA
:1028F0009C45A183858B6305F7B2E9BF93050580ED
:10290000DC45B983858BE39BF4FEDC45B583858B81
:10291000E396F6FE8327C5C0BD83858BE310F6FEE4
:1029200063D00BB01C45A183858B630BF7AEF9B761
:102930003717014063860A1663170A008327C7808A
:102940008327C780E5BF8327C7808327C780E5BF6C
:1029500093F7090263130A12B715014063D10B0202
:1029600063880A0083A6C5C0BD82858AE31AD6FEA5
:10297000E5FB9445A182858A6304D7AAD5B7B7162B
:10298000014063880A0003A7C6C03D83058BE31A94
:10299000E6FEE5FB6FF0CFA885466FF00FE703DAA0
:1029A0000901094401A863070A0C98207D1A1377CE
:1029B000F70F69E381455E85EF00703DE30585FE15
:1029C00005476318E50AB24702C4130A4102938D12
:1029D000F7FF894B638F0D0403D4090109A8E303B2
:1029E00004B498207D141377F70FE31D07B2D28546
:1029F0006685EF00D039E30475FF85476311F51C48
:102A00001257A247110B13568700935607018507EB
:102A1000230EEBFE6183A30FEBFE3EC4A30ECBFEA1
:102A2000230FDBFE1387FDFF63890D0EBA8DE3953F
:102A30000DFAC2472947B94CE380E7FA2945EF0070
:102A4000207959BFE247E389078883D90901094AF8
:102A500009A8E38309889C20FD1993F7F70FE39DEC
:102A6000078681453945EF10E0442ACAE30345FF54
:102A7000A5B0AA8A014781476DBC63990A06B715BC
:102A8000014003A6C5803582058AE39CC6FEF5FB9E
:102A900063D80B9890452182058A6303C798D5B700
:102AA00063170A008327C7808327C780E5BF832772
:102AB000C7808327C780E5BF094A01A8638D090045
:102AC0009C20FD1993F7F70F99E781453945EF00F1
:102AD000102CE30545FFEE876FF06FC0894A014770
:102AE000814D31BEEE8752456FF06FBF3715014003
:102AF0008325C580B5818589E39CB6FE8325C5C045
:102B0000BD818589E316B6FEE5F763DB0B900C45C6
:102B1000A18185896306B790E1BF13D7870013773A
:102B2000F70F93F7F70F854A29B437170140630170
:102B30000A028327C780B583858BE39CF6FE6381F9
:102B40000A8E8327C7C0BD83858B630BF68CD5B7F0
:102B500063880A8C8327C7C0BD83858B6302F68C8C
:102B6000C5BF02C402CA6FF02FF7014581476FF05D
:102B70000FB7371701408327C780B983858BE39C44
:102B8000F4FE63940A006FF0AF898327C7C0BD834A
:102B9000858B6314F6006FF0AF88F1BFAA8A0147F6
:102BA000814DB1BCA247AA8A13D7870093FDF70FC6
:102BB0001377F70FA9B4AA86014B6FF0EFC3A247B2
:102BC000AA8A13D787001377F70F93F7F70F95B2F9
:102BD000EFD26FE41C219306F0076388D700EFE083
:102BE0003F93AA894E856FD04FE69CA11C31B7094F
:102BF0000200130425009CB1138925009384F7FF7C
:102C00008909EDD3416A7D1AFD5ACA852285EFE014
:102C10003F9013570501B3774501FD14AA993A94E3
:102C20003E99E39454FF4E856FD02FE2EFD24FE0F0
:102C3000B76700209387C7711307400698CB0547F5
:102C400041119AAF85451547114523900700D8C318
:102C50002386070023AA0700238D070002C202C4AF
:102C600002C6EFE0EFE593070010371401407C82C5
:102C7000D1474C00130504803EC68D473EC4EFD0BB
:102C80003FF193070010232AF480130404804101CC
:102C90006FD04FDC1C21416505059CA18280EFD2DD
:102CA0002FD99377F5034111328499E393070004F8
:102CB0001377050455C73717014089662328D78045
:102CC0003713014037660020937305081306C67159
:102CD000A162130E0380916F116F9D44850503C897
:102CE000F5FF83284600BE86938E87FF0145338912
:102CF000F44093771800B1CB232853C0232AEE0168
:102D000046C6B247FD173EC6EDFF832783C0232882
:102D1000FE0146C4B98313F71700A247FD173EC44E
:102D2000EDFF9317770005813307D900FD1613587F
:102D300018005D8D638ED601CDFEB357E500638329
:102D400003001CA041016FD0EFD0232A53C07DB7F0
:102D50006384030008A00504F687E3910EF8DDB74D
:102D6000371701408966232AD78099BF376700202B
:102D70001307C7715043B7170140896623A8D7804E
:102D80009166397123AAD78032CAD247FD173ECA4D
:102D9000EDFFB7170140916623A8D78032C8C2471C
:102DA000FD173EC8EDFFB7170140896623AAD780FB
:102DB000916623AAD78032C6B247FD173EC6EDFF03
:102DC000B7170140916623A8D78032C4A247FD17E8
:102DD0003EC4EDFFB7170140916623AAD78032C2E7
:102DE0009247FD173EC2EDFFB7170140916623A839
:102DF000D78032C08247FD173EC0EDFF383F0DC778
:102E0000B71601409386068011659165CCCA32CE13
:102E1000F247FD173ECEEDFF88CA32CCE247FD17E0
:102E20003ECCEDFF7D177DF337180140FD4681450F
:102E30001305088011639168232A150132D2925735
:102E4000FD173ED2EDFF032788C02328650032D04E
:102E50009357E70013F717008257FD173ED0EDFF99
:102E60009317F701CD8FFD1693D51700F1F6B7171D
:102E70000140096723A8E780116723AAE78032DEB3
:102E8000F257FD173EDEEDFFB717014003A587C0DF
:102E9000116723A8E7803981058932DCE257FD17E5
:102EA0003EDCEDFFB717014011677E0523AAE780DE
:102EB0004D8D32DAD257FD173EDAEDFFB7170140DC
:102EC000116723A8E78032D8C257FD173ED8EDFF1F
:102ED000B7170140096723AAE780116723AAE78093
:102EE00032D6B257FD173ED6EDFFB7170140116736
:102EF00023A8E78032D4A257FD173ED4EDFF21610D
:102F00008280B76500209385C571D841B71701400D
:102F1000896623A8D7809166597123AAD7803ACAB7
:102F2000D247FD173ECAEDFFB7170140916623A8AF
:102F3000D7803AC8C247FD173EC8EDFFB71701401A
:102F4000896623AAD780916623AAD7803AC6B2475A
:102F5000FD173EC6EDFFB7170140916623A8D78045
:102F60003AC4A247FD173EC4EDFFB7170140916672
:102F700023AAD7803AC29247FD173EC2EDFFB7178A
:102F80000140916623A8D7803AC08247FD173EC012
:102F9000EDFFB43D9DC637160140130606809168CB
:102FA0001168232A06013ACEF247FD173ECEEDFF07
:102FB000232816013ACCE247FD173ECCEDFFFD1663
:102FC000EDF2B7170140216623AAC7C0916623AA74
:102FD000D7803ADAD257FD173EDAEDFFB717014036
:102FE000916623A8D7803AD8C257FD173ED8EDFF87
:102FF000B7170140916623AAD7803AD6B257FD177A
:103000003ED6EDFFB7170140916623A8D7803AD48A
:10301000A257FD173ED4EDFFB7170140916623AAD2
:10302000D7803AD29257FD173ED2EDFFB717014035
:10303000916623A8D7803AD08257FD173ED0EDFF86
:1030400037180140FD46216E130608801163916810
:1030500093771500638707122328C8C1232A160116
:103060003ADEF257FD173EDEEDFF232866003ADC1C
:10307000E257FD173EDCEDFFFD160581F1FAB42D98
:10308000B03D85470589918E6383F610B7170140DF
:1030900021667DE923AAC7C0B7170140116623AA9C
:1030A000C780BAC29647FD17BEC2EDFFB7170140F1
:1030B000116623A8C780BAC08647FD17BEC0EDFFC2
:1030C000F91695C63716014013060680116811657A
:1030D00048CABAC6B647FD17BEC6EDFF232806018B
:1030E000BAC4A647FD17BEC4EDFFFD16F5F2B7172B
:1030F0000140896623A8D780916623AAD780BACADF
:10310000D647FD17BECAEDFFB7170140916623A849
:10311000D780BAC8C647FD17BEC8EDFFD841B7175C
:103120000140916623AAD780BAD6B657FD17BED6FE
:10313000EDFFB7170140916623A8D780BAD4A657F0
:10314000FD17BED4EDFFB7170140896623AAD780CB
:10315000916623AAD780BAD29657FD17BED2EDFF4B
:10316000B7170140916623A8D780BAD08657FD17BC
:10317000BED0EDFFB7170140216723A8E7C0656106
:103180008280232AC8C1D9BD23A8C7C031B7B717C9
:103190000140096623A8C780A16605E923AAD7C014
:1031A000B7170140916623AAD780BACEF647FD171C
:1031B000BECEEDFFB7170140916623A8D780BACCE9
:1031C000E647FD17BECCEDFF91BF23A8D7C0C9BF0E
:1031D000376700201307C771343F0C33938786008D
:1031E0008607BA97D22BEDCD371801409307088098
:1031F000896823A817019165CCCB8CCBCCCB8CCB29
:1032000023AA1701CCCB8CCBCCCB8CCBA1652328AC
:10321000B8C0916509C6CCCB8CCB7D166DFEB307CB
:10322000D700DC2FB7150140A168FD1711669DC3BB
:10323000937E1500138E05C01388058063870E08E2
:1032400023A815C123AAC58023A8C580FD17058121
:10325000E5F3343FC106860636975E2B0589638CFD
:10326000072A37170140A166631A0530232AD7C001
:10327000B716014013870680116650CB10CB21662C
:1032800023A8C6C0FD17916689C754CB14CBFD1780
:10329000EDFFB7170140096723A8E780116723AA4C
:1032A000E78023A8E780371701409166232AD7805B
:1032B0002328D7800966232AC780232AD78023287A
:1032C000D780A1672328F7C08280232A1E01232AE2
:1032D000C8002328C800FD170581B9FB343F9DBFF6
:1032E0005C43B7150140096823A8058111681D7169
:1032F00023AA0581BEC08645FD15AEC0EDFDB715FC
:103300000140116823A80581BEC29645FD15AEC2D5
:10331000EDFDB7150140116823AA0581BEC4A6457D
:10332000FD15AEC4EDFDB7150140116823A8058158
:10333000BEC6B645FD15AEC6EDFDB7150140096820
:1033400023AA0581116823AA0581BEC8C645FD15BB
:10335000AEC8EDFDB7150140116823A80581BECAAE
:10336000D645FD15AECAEDFDB7150140116823AA7B
:103370000581BECCE645FD15AECCEDFDB71501408F
:10338000116823A80581BECEF645FD15AECEEDFD34
:1033900037180140A168232818C111631308088059
:1033A00091680DC2232A18013EDCE255FD152EDC82
:1033B000EDFD232868003EDEF255FD152EDEEDFD05
:1033C0007D166DF23306D700502E7D1629C2B71533
:1033D0000140A16813880580116E11639376150072
:1033E000638C061423A815C1232A68003ED8C25650
:1033F000FD1636D8EDFE2328C8013EDAD256FD165A
:1034000036DAEDFE7D16058171FA343F5C43C10664
:1034100086063697562B05893717014063810612B9
:10342000216663130516232AC7C0371701401166AA
:10343000232AC7803ED422577D173AD46DFF371711
:10344000014011662328C7803ED632577D173AD6F1
:103450006DFF37160140A1652328B6C0FD1613067F
:1034600006801165916599CE4CCA3ED002577D17F2
:103470003AD06DFF08CA3ED212577D173AD26DFF7F
:10348000FD16FDF23717014089662328D780916623
:10349000232AD7803ECC62477D173ACC6DFF371781
:1034A000014091662328D7803ECE72477D173ACEE1
:1034B0006DFF371701409166232AD7803EC002472F
:1034C0007D173AC06DFF3717014091662328D780DA
:1034D0003EC212477D173AC26DFF37170140896619
:1034E000232AD7809166232AD7803EC422477D179E
:1034F0003AC46DFF3717014091662328D7803EC636
:10350000B247FD173EC6EDFFB7170140216723A85C
:10351000E7C025618280B7170140896623A8D7805C
:10352000216725E123AAE7C0B7170140116723AA45
:10353000E78023A8E78085BB23AA15C175B5096676
:103540002328C780A16605E9232AD7C03717014081
:103550009166232AD7803EC842477D173AC86DFF3F
:103560003717014091662328D7803ECA52477D17FE
:103570003ACA6DFF3DBF2328D7C0C9BF2328D7C093
:10358000C5B923A8E7C04DB72328C7C079BD3766A2
:1035900000201306C6710348B6011C3242876380BF
:1035A0000712B717014093870780896823A817017E
:1035B0009166D4CB94CB23AA1701D4CB94CBD4CB94
:1035C00094CB63060800D4CB94CB7D176DFF935743
:1035D0001500858B638D0734B7170140216723A839
:1035E000E7C0371701409168232A178193060780A7
:1035F000130707C01C471353250023A81601B583E2
:103600001373130093F82700A167630C033C1CCBD2
:10361000B7170140116E1383078023AAC7819387D0
:1036200007C09447135735002328C301B982058B7F
:10363000858A6305073A216798CBB717014013873E
:1036400007801163232A6700938707C09C47054EB4
:1036500023286700B183918BB3E71701DD8E638266
:10366000C62F89671CCB232A6700232867003717DA
:1036700001409165232AB7802328B7800968232A4F
:103680000781232AB7802328B780A1672328F7C0A2
:103690001375050819C12324060058269307F7FF60
:1036A00001CF37170140130707801166FD5550CB36
:1036B00010CBFD17E39DB7FE13F5F60F82805C4239
:1036C000B7160140896823A816819168717123AAF1
:1036D00016813ECDEA46FD1636CDEDFEB716014009
:1036E000916823A816813ECFFA46FD1636CFEDFE2F
:1036F000B7160140896823AA1681916823AA16810A
:103700003ED18A56FD1636D1EDFEB71601409168BE
:1037100023A816813ED39A56FD1636D3EDFEB71672
:103720000140916823AA16813ED5AA56FD1636D5CA
:10373000EDFEB7160140916823A816813ED7BA5610
:10374000FD1636D7EDFE63080802B71801409388CE
:103750000880116E116323AA68003EC9CA46FD168F
:1037600036C9EDFE23A8C8013ECBDA46FD1636CB9E
:10377000EDFE7D176DF313571500058B630A0724C3
:1037800037170140A1662328D7C03717014091663B
:10379000232AD780BEDC66577D17BADC6DFFB716CB
:1037A000014003A786C0916823A816813983058B41
:1037B000BEDEF658FD18C6DEE39D08FE93562500D2
:1037C000858A1313170037170140638F061EA16601
:1037D0002328D7C0371701409166232AD7803EC1DE
:1037E0008A48FD1846C1E39D08FE3717014083262D
:1037F00087C0916823281781B982858A3EC39A4879
:10380000FD1846C3E39D08FE13573500058B63087A
:10381000072C37170140A168232817C1371701402B
:103820009168232A17813EC5AA48FD1846C5E39D25
:1038300008FEB718014003A788C0116E23A8C881ED
:103840003983058B3EC7BA48FD1846C7E39D08FE7D
:103850000A0733676700D98E05476386E61837176E
:10386000014089652328B7809165232AB780BED897
:1038700046577D17BAD86DFF371701409165232849
:10388000B780BEDA56577D17BADA6DFF3717014099
:103890009165232AB7803EC842477D173AC86DFF1D
:1038A0003717014091652328B7803ECA52477D17DC
:1038B0003ACA6DFF371701408965232AB7809165A1
:1038C000232AB7803ECC62477D173ACC6DFF37176D
:1038D000014091652328B7803ECE72477D173ACECE
:1038E0006DFF37170140A1652328B7C01375050880
:1038F00019C12324060058261306F7FF1DCFB7155C
:1039000001409385058011681165C8C93EC42247EE
:103910007D173AC46DFF23A805013EC632477D17C7
:103920003AC66DFF1307F6FF09CA3A86F9BFB71703
:103930000140216723AAE7C06DB113F5F60F4D6171
:103940008280937725006395072A9841FD473718B1
:103950000140216E9165937F1700130F08C0130378
:10396000088063800F322328C8C1232AB880232807
:10397000B880FD170583E5F33C2E0348B601854565
:10398000058BB3870741638FB73863170730371745
:103990000140A165232AB7C03717014013070780EC
:1039A00091654CCB0CCBF91789C74CCB0CCBFD17D1
:1039B000EDFFB7170140096723A8E780116723AA25
:1039C000E78023A8E78065B1A166232AD7C019B58F
:1039D00037170140A166232AD7C045BB2167D8CB42
:1039E000A9B95CCB35B113772500631007108C4162
:1039F000B71801407D48216E13830880116F916EC6
:103A000013F71500630C072623A8C8C1232AD30186
:103A1000BEC006477D17BAC06DFF2328E301BEC2B2
:103A200016477D17BAC26DFF7D188581E31A08FC21
:103A30000348A6018348B601054785893308184124
:103A40006303E82A37170140639E0524A165232AF2
:103A5000B7C0371701409165232AB7803EDC625713
:103A60007D173ADC6DFF3717014091652328B78039
:103A70003EDE72577D173ADE6DFF9305E8FF9DC568
:103A8000371801401308088011639168232A180130
:103A90003ED842577D173AD86DFF232868003EDA9A
:103AA00052577D173ADA6DFFFD15EDF137170140DA
:103AB00089652328B7809165232AB7803ED4225791
:103AC0007D173AD46DFF3717014091652328B780E1
:103AD0003ED6B257FD173ED6EDFF5C4245BB3717C9
:103AE0000140A168232A17C115BB371F01407D4E35
:103AF0000143930E0F809162916F23AAFE01BED401
:103B0000A658FD18C6D4E39D08FE03278FC023A83E
:103B10005E00BED63983058BB658FD18C6D6E39D28
:103B200008FE7E07336767007D1E13531700E316F8
:103B30000EFC8348A6010547338808416308E81650
:103B4000371701409168232A1781BED08658FD1887
:103B5000C6D0E39D08FEB718014003A788C0116EC8
:103B600023A8C8813983058BBED29658FD18C6D2CA
:103B7000E39D08FE9308E8FF638B0802371E0140AF
:103B8000130E0E80116F916E232ADE01BECC6648A3
:103B90007D18C2CCE31D08FE2328EE01BECE764878
:103BA0007D18C2CEE31D08FEFD18E39F08FC371800
:103BB00001408968232818819168232A1881BEC88A
:103BC00046487D18C2C8E31D08FE371801409168B9
:103BD00023281881BECA56487D18C2CAE31D08FEB4
:103BE000E38605CA7E073367670098C15C4279B9EE
:103BF000FD480143371F0140916F116E232AC70111
:103C0000930E0FC083A78E00FD182328C701B98328
:103C1000FE07B3E7670013D31700E39108FE83485C
:103C2000A601854733880841630FF810232AF7015E
:103C300083A78E0079182328F701B983371701402D
:103C4000858B13070780916863090800232A1701F1
:103C5000232817017D18E31B08FE37170140096868
:103C6000232807811168232A078123280781E380FD
:103C700005A0FE07B3E767009CC1D5BA23AAC8C157
:103C800071B3232ACF01232AB3002328B300FD17E1
:103C90000583E39207CCCDB137170140A1652328F6
:103CA000B7C0DDB9A1652328B7C065B33717014098
:103CB0000968232807811168232A0781BEC4264783
:103CC0007D17BAC46DFF37180140032788C091687B
:103CD000232818813983058BBEC636487D18C2C695
:103CE000E31D08FEF5BD37170140896823281781B9
:103CF000B5C5A1652328B7C0371701409165232AB0
:103D0000B7803ED002577D173AD06DFF371701407C
:103D100091652328B7803ED29257FD173ED2EDFF22
:103D20005C42ADB6B7170140096823A807811DCBD7
:103D3000216723A8E7C0B7170140116723AAE780CE
:103D400023A8E7802DB289671CCB232AF70183A71C
:103D50008E002328F701B983858B11BFA165232A23
:103D6000B7C059BF216723AAE7C0F1B725C5B76718
:103D7000002003A80772B71601401306F5FF411192
:103D80000145014793860680896E116E1163FD58C7
:103D900015CD7D15937717009DC723A8D60123AABB
:103DA000660042C6B247FD173EC6EDFF23A8C60116
:103DB00042C4A247FD173EC4EDFF7D160583E319FB
:103DC00016FD4101828023AAD601D1BF98211D454D
:103DD0008505C9B782809376F503411199E2930670
:103DE0000004B76E0020938ECE719377050803A56B
:103DF0004E00B5C3B718014021488145938808801B
:103E0000116E116323AA68002AC29247FD173EC2B1
:103E1000EDFF83A7880023A8C8012AC0B58313F744
:103E200017008247FD173EC0EDFF8581931777008D
:103E30007D18DD8DFD1663080800E9F6B3D705018E
:103E40001CA2410182800CA20506E5DE03A54E00FE
:103E50008145214845BF138E15009021B7150140BB
:103E6000214793850580096391681168937716004F
:103E70008DCB23A8650023AA05012AC6B247FD17EA
:103E80003EC6EDFF23A815012AC4A247FD173EC474
:103E9000EDFF7D170582FD1601CBC5D69377160081
:103EA000E9FB23AA6500C1BFC9DE03460E00214716
:103EB000050E6DBFB76600209386C6719C321376DF
:103EC0001500638E0716B7170140938707800967AF
:103ED00098CB116823AA070123A807016318064895
:103EE000D8CB3717014011661307078050CB935783
:103EF000150010CB13F6170063080648096610CBAF
:103F00003717014011681307078013562500232A2D
:103F100007012328070113781600B2970966630E7C
:103F2000084610CB3717014011661307078050CBA6
:103F30001358350010CB13761800AA97630C06446B
:103F4000096610CB3717014013070780116650CB65
:103F5000C29710CB858B638C074289671CCBB71740
:103F60000140116723AAE78023A8E780096623AAF6
:103F7000C78023AAE78023A8E78023A8C78023AAB5
:103F8000E78023A8E78003A74780370600FFB7082C
:103F90004000718F23A2E78003A7478003C88601F2
:103FA0009387078033671701D8C33E861167C2879E
:103FB0006306080058CA18CAFD17EDFF37170140FD
:103FC00013070780116650CB8328870010CB50CB96
:103FD0001C4710CB50CB03238700B183898B13532D
:103FE000B3001373430093D8D800B3E7670093F886
:103FF000180010CBB3E717010546638DC74E138E2B
:10400000E7FF137EDEFF930518023A861163630B08
:104010000E46232A660023286600FD15FDF9584246
:10402000B70600FF93F7F70F758F58C25842B706CF
:1040300030013E85558F58C2096718CA8280DC421C
:104040003717014009682328078111683171232A35
:1040500007813EC10A477D173AC16DFF37170140FE
:104060001168232807813EC31A477D173AC36DFFA5
:1040700037170140630B063209662328C7803717BC
:1040800001401166232AC7803EC52A477D173AC5DD
:104090006DFF3717014011662328C7803EC73A4796
:1040A0007D173AC76DFF1357150013761700630885
:1040B000062E37160140096823280681371601406D
:1040C0001168232A06813EC94A467D1632C96DFE13
:1040D000371601401168232806813ECB5A467D16CB
:1040E00032CB6DFE13562500137816003297371623
:1040F0000140630C082C096823280681371601400B
:104100001168232A06813ECD6A467D1632CD6DFEAA
:10411000371601401168232806813ECF7A467D1666
:1041200032CF6DFE13583500137618002A976308B6
:104130000628371601408968232816813716014062
:104140009168232A16813ED10A567D1632D16DFE22
:10415000371601409168232816813ED31A567D16E2
:1041600032D36DFE4297058B630507243717014054
:1041700009662328C780371701401166232AC780A4
:104180003ED52A577D173AD56DFF37170140116686
:104190002328C7803ED73A577D173AD76DFF371788
:1041A00001400966232AC7801166232AC7803ED9A9
:1041B0004A577D173AD96DFF3717014011662328FA
:1041C000C7803EDB5A577D173ADB6DFF371701403A
:1041D00009662328C7801166232AC7803EDD6A57F7
:1041E0007D173ADD6DFF3717014011662328C78020
:1041F0003EDF7A577D173ADF6DFF37170140032600
:104200004780370800FF370340003376060123223A
:10421000C78003284780902E130707803368680003
:1042200023220701BA883288116E116315C223AAAE
:104230006800BEDC66577D17BADC6DFF23A8C80195
:10424000BEDE76577D17BADE6DFF7D18E31108FEDE
:10425000371701401168232A0781BED006577D1702
:10426000BAD06DFF371801400323888011672328D7
:10427000E8801353D30013731300BED216587D1871
:10428000C2D2E31D08FE371701401168232A0781B7
:10429000BED426587D18C2D4E31D08FE371801404D
:1042A000032788809168232818813583058BBED623
:1042B00036587D18C2D6E31D08FE916837180140B4
:1042C000232A1881BED89318170046587D18C2D8E3
:1042D000E31D08FE3718014003278880116E23284C
:1042E000C8813583058BBEDA56587D18C2DAE31DC6
:1042F00008FE0A0733671701336767000548630C38
:1043000007291308E7FF1378D8FF93051602630205
:10431000080C37160140130606801168116548CA5B
:104320003EC4A246FD1636C4EDFE232806013EC655
:10433000B246FD1636C6EDFEFD15F5F1B716014085
:1043400083A74680370600FFF18F23A2F68003A6DD
:1043500046809377F70F37073001518F23A2E6800D
:10436000096723A8E6803E852961828098CB3717AC
:10437000014011661307078050CB9357150010CBEF
:1043800013F61700E31C06B6096650CB95BE896785
:104390005CCBF1B6096650CB75B650CB61B637161B
:1043A00001400968232A068111BB0966232AC780B8
:1043B000F9B1371701400966232AC7806DBB37164C
:1043C00001408968232A168195BB0968232A068142
:1043D00035B303CE9601630C0E28937E25006396B9
:1043E0000E4C63030650B715014093850580916814
:1043F000116823AA05013ECCE246FD1636CCEDFE3F
:1044000023A815013ECEF246FD1636CEEDFE7D16F2
:104410006DF2B716014003A64680B70500FF6D8E0A
:1044200023A2C68003A64680B70530014D8E23A285
:10443000C680630F0E02937E2500639B0E02B715A4
:104440000140938505808966D4C91306100211685E
:104450001165C8C93EC8C246FD1636C8EDFE23A880
:1044600005013ECAD246FD1636CAEDFE7D1675F22E
:10447000B7170140896623A8D7809377F70F3E8549
:10448000296182808C3E638705209378250063969E
:104490000840630E084637170140130707809166EE
:1044A00054CB14CB7D18E31D08FE5443370600FFA0
:1044B00093782500F18E54C3544337063001D18ED2
:1044C00054C385C1639F0800B716014009679386EE
:1044D0000680D8CA116613071002D0CA90CA7D1789
:1044E0006DFF37170140896693F7F70F2328D780B0
:1044F0003E858280937725006396072E9167630738
:1045000008005CCB1CCB7D18E31D08FEB7170140EB
:1045100003A74780370600FFB7083001718F23A239
:10452000E78003A84780130700020146336818019B
:1045300023A207819C4137130140896E916813FEC5
:10454000170013080380630D0E022328D381232A4A
:104550001381232813817D173E9685836DF3058A89
:10456000B71701400967631E063623AAE780B7170D
:104570000140116723AAE78023A8E7808547EDA4BF
:10458000232AD801232A1801232818017D173E96D3
:10459000858355F7E9B713772500631A07101DC601
:1045A000371801401308088011639168232A180105
:1045B000BEC006477D17BAC06DFF23286800BEC283
:1045C00016477D17BAC26DFF7D166DF23716014092
:1045D000130606805842370800FF3703300133774F
:1045E000070158C258421308000281483367670028
:1045F00058C28C410963916E116E13F715002DC7D7
:1046000023286600232AC6013EDC62577D173ADC68
:104610006DFF2328D6013EDE72577D173ADE6DFF0F
:104620007D18AE988581E31A08FC93F818003717B7
:10463000014009666394082A232AC780371701407E
:104640001166232AC7803ED842577D173AD86DFF9E
:104650003717014011662328C7803EDAD257FD176D
:104660003EDAEDFF854705AA232A660061BFE31CF9
:1046700006D6B717014083A64780370600FFF18EA4
:1046800023A2D78083A6478037063001D18E23A28C
:10469000D780F9BBE31108E05443370600FFF18EE1
:1046A00054C3544337063001D18E54C31DBD371354
:1046B0000140130E00028148814E13030380916F65
:1046C000116F232AE301BECC66477D17BACC6DFF7C
:1046D000032783002328F301BECE3583058B76485C
:1046E0007D18C2CEE31D08FE93D818001318F701F9
:1046F0007D1EBA9EB3681801E3150EFC3717014002
:104700001168232A0781BEC846477D17BAC86DFFC6
:1047100037170140032887801163232867801358C7
:10472000D80013781800BECA56477D17BACA6DFF65
:10473000B3C70E01858BFD17E59BA10781C523A09B
:104740001501902E0DCA03A84600B71501409385A8
:1047500005801163916823AA1501C2C426477D17FD
:10476000BAC46DFF23A86500C2C636477D17BAC616
:104770006DFF7D166DF23717014003264780B705A0
:1047800000FF6D8E2322C78003264780B7053001C6
:104790004D8E2322C7801375050819C123A4060076
:1047A000D0260DCACC42B716014093860680096711
:1047B000D8CA11681165C8CA2ED422577D173AD4B9
:1047C0006DFF23A806012ED632577D173AD66DFF0E
:1047D0007D1675F23717014089662328D7803E85FC
:1047E000296182809308000201460143116F116E16
:1047F000232AC7011C4705822328C701B583858B5F
:10480000939EF701FD183E9333E6CE00E39208FE37
:10481000232AE7011C472328E701B583B347F300A8
:10482000858BFD17E59BA10781C590C103C8860153
:10483000371701401307078011666307080050CB44
:1048400010CB7D18E31D08FE371701400326478073
:10485000B70500FF6D8E2322C78003264780B7056A
:1048600030014D8E2322C7801375050819C123A47A
:104870000600D82601CFB716014009669386068048
:10488000D0CA1166D0CA90CA7D176DFF3717014094
:1048900089662328D7803E858280930610021166A0
:1048A00050CB10CBFD16EDFEEDB637180140930549
:1048B00010021308088011639168232A18013ED062
:1048C0008256FD1636D0EDFE232868003ED2925661
:1048D000FD1636D2EDFEFD15EDF121B62328C78079
:1048E000B1BB23A8E78061B1B716014003A646809B
:1048F000B70500FF6D8E23A2C68003A64680B705CC
:1049000030014D8E23A2C680E3940EB60DBE37173C
:10491000014083264780370600FFF18E2322D7808F
:104920008326478037063001D18E2322D780E39A31
:1049300008BA59BEEFB2DF8F41112E892AC613047F
:104940004006894411A03DC06C0015457D14EFF070
:104950006FD61374F40FE30895FE85476318F504CA
:104960004AC613044006894411A029C06C0035458D
:104970007D14EFF02FD41374F40FE30895FE8547F0
:104980006316F50213044006894411A005C0814551
:1049900039457D14EFF00FD21374F40FE30895FE40
:1049A0007D151335150041016FB0DF8A01454101C6
:1049B0006FB05F8AEFB23F86B76900209389894E56
:1049C00083A7090041112A8A9DCB02C61304400621
:1049D0006400094911A009CCA68521457D14EFF09A
:1049E0006FCD1374F40FE30825FF85476307F500C7
:1049F00081473E8541016FB05F8523A0090003A771
:104A000049008547E30747FF23A2490152C6130423
:104A100040066400094911A061DCA68505457D14A6
:104A2000EFF04FC91374F40FE30825FF05478147E2
:104A3000E311E5FC13044006894411A055D88145D3
:104A400039457D14EFF00FC71374F40FE30895FE9A
:104A50007D15933715003E8541016FB00FFFEFB212
:104A60002FFD3705002337F400E0130525058324C7
:104A7000C4D0893711C9B705FA0593F404709105BC
:104A8000C58D1305C4D07D356FB0CFFCEFB24FFAA2
:104A9000EFB03F8E37370240A3000740C146A30066
:104AA000D74023000740930690022300D740FD56CD
:104AB0002305D74023010740930630022301D74046
:104AC000FD562328D740232A0740232C074083473D
:104AD0000740014593E707012300F7406FB08FF7C8
:104AE00009E5B7370240A3810740B76700209387E5
:104AF000077788A7014582801C2103582500834839
:104B000015009396870113F7F707E186931727009F
:104B100063CF0604B386E70093952600B7660020AE
:104B200093860677AE968545238716152388B61497
:104B30003736024003230641854541073397E50098
:104B40002396061593080640336767001306B64D93
:104B500023A8E8003E961307200218A23621373713
:104B6000024013078749BA9796A301458280B3860E
:104B7000E70093952600B766002093860677AE96E9
:104B80008545238716018CAA373602400323064148
:104B900085453397E5002396060193080640336761
:104BA00067001306A64D23A8E8003E9613072002CF
:104BB00018A236213737024013078749BA9796A3C0
:104BC000014582800145828093178501E187137535
:104BD000F50763C6070209CDB73702409387B74D83
:104BE0000A053E951C2193E737001CA101458280F0
:104BF000B73702400D47A38DE74C0145828001E99C
:104C0000B73702400D47238DE74C01458280B73707
:104C100002409387A74D0A053E951C2193E7370074
:104C20001CA1014582809377F507620561858A079B
:104C300037370240634905001307B74DBA97238001
:104C40000700014582801307A74DBA97094798A32B
:104C5000014582801375F507C9C913172500B307ED
:104C6000A700B7660020938606778A07B69703C821
:104C70000701630D080CCCCB90CF23AE070031C1E8
:104C8000B73602409386864DBA967D1535E223905D
:104C90000600B73702409387A74D3E97B7670020BD
:104CA000938707763E951C23142193F7470E93F6BE
:104CB000F60F99C293E7870093F7F70F1CA30145FE
:104CC000828021E6B7370240239C074CB76700205B
:104CD00083C7174F37370240014593F7F70FB337B4
:104CE000F0008E07230DF74C828025DA7D558280F7
:104CF000DE276362F604C207C1839EA2B737024073
:104D000093878745BA978CC369B7DE26636BF60035
:104D1000C20737370240C183231CF74C232EB7400C
:104D200075B7B287C20737370240C183231CF74CDF
:104D3000232EB74061BFB287C207C1839EA2B73797
:104D4000024093878745BA978CC3A1B77955828073
:104D50001375F507B5CD93172500AA97139727006C
:104D6000B767002093870777BA9703C7071551CF16
:104D700013F735002E8841EF23AAB71423ACC714CC
:104D800023AE071405C5373702409307F5FF8A079E
:104D900093060742BE961307F74D23A00601BA9764
:104DA000982301451377C70F98A3828021CA37370C
:104DB0000240232EB740B767002083C7074F014545
:104DC00093F7F70FB337F0008E07A30DF74C8280EF
:104DD00029E293172500AA9713972700B7670020A9
:104DE00093870777BA9703C7071505C323AA071444
:104DF00023AC071423AE0714014851F5B73702401E
:104E00002147A38DE74C01458280795582807555F5
:104E100082807D5582804111B737024022C626C468
:104E20004AC21384074038241377F70F937627007C
:104E3000DDC22834383489463D8911830D8B6308DF
:104E4000D71E2DEF630805303834137707043DC7AC
:104E5000131325001386B74D1A9614223307A300A7
:104E600093F6C60F93E6260014A293162700376721
:104E70000020130707773697562483284715832584
:104E8000C71503288715C206C182035EC714B698EA
:104E9000B6953308D840232A1715232EB714232C90
:104EA000071563E0C633630E08309387C7413E930E
:104EB000232013011C2293F7C70F1CA2B73702400F
:104EC00009472385E740938707403244A2441249AB
:104ED00041017300203093760702639E061A058B0A
:104EE0006DD74167050718C8231C040C0947230D1B
:104EF000E40C0549B7660020A388264F37670020D9
:104F00002308274F239E074C13072002238FE74CCB
:104F1000B7660020A38FE74C9386067623800600B1
:104F20002390074E2381E74EA381E74EA38006001E
:104F30002392074E2383E74EA383E74E2381060087
:104F40002394074E2385E74EA385E74EA3810600F1
:104F50002396074E2387E74EA387E74E238206005A
:104F60002398074E2389E74EA389E74EA3820600C4
:104F7000239A074E238BE74EA38BE74E238306002D
:104F8000239C074E238DE74EA38DE74EA383060097
:104F9000239E074E238FE74EA38FE74E2384060000
:104FA000239007502381E750A381E750A384060094
:104FB000239207502383E750A383E75023850600FD
:104FC000239407502385E750A385E750A385060067
:104FD000239607502387E750A387E75023860600D0
:104FE000239807502389E750A389E750A38606003A
:104FF000239A0750238BE75037680020A38BE75094
:105000001306C02881451305087793040877238782
:105010000600EFB0EFA4992944CCA30D040C23059E
:1050200024013244A244124941017300203059E165
:1050300037640020130404771C4C5624B764002006
:10504000584C9384144F63ECF6143E9785479CA00C
:1050500081471CCCBA851305000858CC09261C24AE
:1050600093F7F70F91CB1824B73702401377F70F58
:10507000A381E740230404007E2089C7830704003E
:10508000E3CE07E2B737024023AE8740A38D074C3B
:1050900085479CA025B53765002013050577EF00EF
:1050A000B057930700023CA43244A2441249410184
:1050B00073002030931825001388A74D4698834627
:1050C00008003387A8001316270093F6460E3767AB
:1050D000002093E62600130707772300D8003297B5
:1050E000104F5627930EF5FF63FFC60CB7650020DF
:1050F00093850576338FD501484B032EC7010343B3
:105100000F003695158E369E134313009387874DF7
:1051100048CB10CF232EC70123006F00C6976367CB
:10512000D608C206C18296A3B73702409387874547
:10513000C69788C3F69583470800982193F7470ED2
:105140001377F70F19C393E7870093F7F70F23003F
:10515000F800ADB30359C400B7640020938404770A
:1051600083A7C41503A78415420913590901CA97D7
:1051700033072741BE8523AEF41423ACE41419246D
:105180006318090244CCA30D040C8547B7660020C0
:10519000376700202388F64EA308F74E05B390200A
:1051A000958F36979346160094A065B5B28695BF45
:1051B000B76700209387074F98231347170098A3DA
:1051C000F5B9C922E5B9B767002093870776544F30
:1051D000BE9E83C70E003696B28593C7170013652F
:1051E000050850CF232C07002380FE008D2AF9B13B
:1051F000375700001307E72018C123220500232496
:105200000500232605008280828082808280EFB2A2
:105210002F821C311307100201112E89442163874C
:10522000E7042A846370F70213072002638DE70AFC
:10523000130730026392E7082685C93F01450561DF
:105240006FB04F81130700026398E7067C3170212D
:105250008C41A2075D8E2808EF1090622C082685ED
:10526000EF10903E014505616FA0DFFE2C082685FA
:1052700032C6EF107042832709000345B10183480D
:1052800091010348A1018345C1018346D101034730
:10529000E101034381013246A8B323806700A38064
:1052A000170123810701CCA3D4B3F8A39D471CC2E7
:1052B000014505616FA01FFA37950000130585842D
:1052C000EF1030670C303795000013058585EF101F
:1052D00050663795000013050588EF1090657D55E1
:1052E00005616FA03FF72C313C2126851394850082
:1052F0005D8C93751400093F9355140026858589AC
:105300002937014505616FA0FFF4EFA27FF2938773
:1053100001859847D0472E970D8E98C7D0C70DEAC4
:10532000D82B09EFFA231DC38387070063D0070238
:10533000014681450145EFF0BFA109A8014681451D
:1053400013050008238A0700EFF0DF906FA09FF09D
:10535000BA8513050008EFF0FF8F6FA0BFEF13773A
:10536000F50793171700BA971397270093870185BE
:10537000BA9783A7871591C7EFA29FEB82976FA07B
:105380007FED82801377F50793171700BA9713976D
:10539000270093870185BA9783A7871B91C7EFA240
:1053A0003FE982976FA01FEB8280EFA27FE8AA847B
:1053B00013060021814513850185EFA07FEA138440
:1053C0000185930700F82308F414B757000093876A
:1053D000A730232CF414B75700009387274D04CC33
:1053E000232CF41A6FA01FE723A8A186828023AA8A
:1053F000A18682809387018503C7C714930687041B
:105400008A0618ADBE960507C8C62386E7148280B3
:105410001C215041139787016187634F0700139741
:1054200017003E97931627001387018536972308A8
:10543000F71A232CC71A828093F6F70713971600E2
:105440003697931627001387018536972308F7149C
:10545000232CC714828003C581973335A000828036
:10546000EFA21FDDEFF08FE26FA0DFDEEFA25FDCC7
:1054700041110145EFF0CFE6B707400093870708D9
:105480009384018528003EC423840412EFF0CFE604
:10549000280023040100EFF02FE603C7C41405C75A
:1054A0000144930784048A07A697DC478145054594
:1054B00091C7DC4781C7829703C7C41405041374DE
:1054C000F40FE360E4FE0545EF10806541016FA035
:1054D0007FD885C5EFA2DFD2138401851C445044D8
:1054E0000111AE970D8E1CC450C409CABE8501457A
:1054F000EFF01F8605616FA07FD482801C2013050A
:10550000840208C413F70706930600026302D7104B
:10551000930600046308D70035CB13050008EFF0AD
:10552000AFEAC9BF5C4C6382072A1830DC236307EB
:10553000F74C0347C4148144130A040193098400FF
:105540001DC7938784048A07A297DC4781CF9C47B5
:1055500091CB5286CE851385018582976301052400
:105560000347C414850493F4F40FE3ECE4FCB7940C
:1055700000003799000013050998EF10903B37950C
:1055800000001305C5AAEF10104C3DAA8D8B0547EE
:105590006384E728638E072089466393D702834795
:1055A000841299CF1C304420638BE7506386072E0A
:1055B0000D476397E7003E206380074023280400DF
:1055C000B7990000B79400003799000013050998B7
:1055D000EF103036379500001305C59BEF10B0462D
:1055E00013850488EF10F0341385898DEF10703423
:1055F0007E205A20362010300C20379500001305ED
:10560000459DEF10103313850488EF10903231B7A9
:105610008D8B05476383E70C09476399E7080347C8
:10562000C41449C78327C41281C7DC43639007169B
:10563000854763FDE7068327041381C7DC4363972F
:10564000071489476304F7068327441381C7DC43A3
:10565000639E07128D47630BF7048327841381C76A
:10566000DC436395071291476302F7048327C41351
:1056700081C7DC43639C071095476309F7028327C2
:10568000041481C7DC436393071099476300F70252
:105690008327441481C7DC43639A070E9D47630741
:1056A000F7008327841499C3DC43EDE337950000AA
:1056B00013050598EF10F02737950000130545A353
:1056C000EF107038B794000013850488EF1070262F
:1056D000379500001305858D11BF0347C41479D792
:1056E0000326C412542011C61C4281C7102E638F9A
:1056F000C6088547E3FCE7FA0326041311C61C42DB
:1057000081C7102E6384C6088947E301F7FA032690
:10571000441311C61C4281C7102E6309D6068D475B
:10572000E306F7F80326841311C61C4281C7102E26
:10573000630ED6049147E30BF7F60326C41311C694
:105740001C4281C7102E6383C6049547E300F7F619
:105750000326041411C61C4281C7102E6388C6029A
:105760009947E305F7F40326441411C61C4281C788
:10577000102E638DC6009D47E30AF7F203278414B9
:1057800015D71C4385D7182FE312D7F2130604014F
:1057900093058400138501858297E34905F001464E
:1057A000814513050008EFF0EFCA05616FA01FA93E
:1057B0001430A5472620E3E5D7E025679397260018
:1057C00013078788BA979C4382871C50E38307D6C8
:1057D0001830FC23E31FF7D45A209D476317F722A4
:1057E000379500001305858DEF10B0143795000034
:1057F000130505A9EF10302537950000130505881E
:10580000EF1030131C500844D2238C43EF10500784
:105810001C50DE231CC861B783478412E38207DA79
:105820001C3019473620034A44006384E72C637315
:10583000F7062947638CE73A2D47E393E7D8032916
:10584000840193F9F60F83440900638C0450814C62
:10585000130DF00F930DF00F114B954A379C00007C
:10586000B79B000011A8639457016305BA3D2699C0
:1058700083440900638E043E83471900E39567FF64
:10588000834D2900034D3900E313BAFFE391A9FFCB
:10589000CA8CF1BFE39607D28947231404021CC8BF
:1058A000FDBD93D984008D4793F8F90F93F4F40F5D
:1058B0006380F940BD476380F94E9387C8FF93F733
:1058C000F70F0547E37EF7CE9D47E3EB17CF0C4C70
:1058D000982111E7FDA9BA959821630C074E9431E0
:1058E000E39B16FF6384C4460506F5B713F5F40F72
:1058F000EFF00F9F232804005DB5930784121CC4AA
:1059000085471CC869BD85476381F40E23280400C0
:1059100079B50329840193F9F40F83440900E38FD7
:1059200004C80145130DF00F930BF00F114B954A6E
:10593000B79D0000B79C0000379C0000094A01A8F1
:10594000638947172699834409006386042A83479D
:105950001900638D6715E39557FFE39579FFE3130E
:105960000DFE8347290013858D8D230CF10083479D
:10597000590003474900A207D98F93F7F77FFC85A9
:10598000834739008D8BA30CF100EF10807AB4852A
:10599000034691018345810113858C92EF10607954
:1059A00013050C88EF10E0782808EFF0EF9413351A
:1059B00015008344090079B7379500001305059851
:1059C000EF10207737950000A6851305859AEF1014
:1059D00040763795000013050588EF108075268501
:1059E000EFF08F9E232804005DBB8D47638BF6404C
:1059F0002945EF10E0122328040055B35E2011471B
:105A00006380E70815476385E702379900001305AF
:105A10000998EF10007237950000130585A7EF1065
:105A20009002B794000013850488EF108070A1B62F
:105A3000379500001305858DEF10A06F3795000096
:105A40001305C5A5EF103000379500001305058834
:105A5000EF10206E5C4C3A200844DC470A07BA97E6
:105A60008C4384319421B821BC31A204B6944207FE
:105A7000BA94E207BE942686EF10806004C805B38E
:105A8000379500001305858DEF10A06A379500004B
:105A90001305C5A4EF10207B37950000130505887A
:105AA000EF1020695C4C08448C4765BF034D3900FA
:105AB00051BD834B5900E39779E9054561B53E2017
:105AC000E39E07AE3795000013050598EF1060665A
:105AD00037950000A68513050599EF108065379569
